:100000000C943A000C9457000C9457000C94570031
:100010000C9457000C9457000C9457000C94570004
:100020000C9457000C9457000C9457000C945700F4
:100030000C9457000C9457000C9457000C945700E4
:100040000C9457000C9457000C9457000C945700D4
:100050000C9457000C9457000C9457000C945700C4
:100060000C9457000C9457000C9457000C945700B4
:100070000C94570011241FBECFEFD4E0DEBFCDBFDC
:1000800013E0A0E0B1E0E0EAFFE002C005900D92CD
:10009000A435B107D9F723E0A4E5B3E001C01D9270
:1000A000A337B207E1F70E94F7060C94CE070C9431
:1000B0000000E1E6F0E080E880831082A89584B734
:1000C000877F84BFE0E6F0E08081886180831082D2
:1000D0000895CF93C62F0E94E70689E491E00E941D
:1000E00066068C2FCF910C945606CF93DF9300D0E9
:1000F000CDB7DEB789831A82CE0101960E944706EA
:100100000F900F90DF91CF910895CF93909154036A
:10011000911112C0C82F81E090E00E945C0681E03E
:1001200080935403CC2319F082E391E002C08CE366
:1001300091E0CF910C944706CF9108950C946B06F3
:100140000C946301CF93C82F0E944B01882321F0A8
:100150008C2FCF910C945101CF910895CF93C82F3C
:100160000E944701811102C081E00DC00E94490137
:100170009EEA980F923010F08035B1F7682F8C2FDF
:100180000E94060180E0CF910895429A0895429816
:1001900008953A9A429808950C942604CF93C82F54
:1001A00080E00E948803882349F0C23521F0C035E1
:1001B00021F0C2E503C0C0E501C0C3E582E00E94B2
:1001C0008803882349F0C23521F0C03521F0C0E50D
:1001D00003C0C3E501C0C2E58C2FCF9108950C94F4
:1001E000BA0384E00C9488031092700310926D039C
:1001F00081E080936E0310926C0382E0809372031F
:1002000083E08093710310926F030895823581F427
:10021000603531F480916D038F5F80936D03089595
:10022000633599F4809170038F5F80937003089514
:10023000803529F46235B1F3633539F4EBCF83357A
:1002400021F4623539F3603569F3089580916F03C5
:1002500081111BC08091700390916D03833040F039
:10026000933030F481E080936F0380916E030895A2
:10027000933040F0833030F481E080936F038091BD
:100280006C03089580917103089584E008950C949F
:1002900072020C9493020C9478020C947E020C94DB
:1002A00084020E9484020E947E028823E1F38CE291
:1002B00091E00197F1F70E94720281110C944901BB
:1002C00008950C949A02CF93DF9300D01F92CDB77C
:1002D000DEB780912A0390912B03A0912C03898390
:1002E0009A83AB83509A589A0E9445028FE690E019
:1002F0000E94DC0181E090E00E94340261E070E045
:1003000081E090E00E9420020E940C02CE01019642
:100310000E945A020F900F900F90DF91CF91089595
:10032000CF93DF93DC01FB0160E070E080E0C1E08F
:10033000D0E08417C9F09191BE01092E02C0660F6A
:10034000771F0A94E2F76F5F7F4F769567956A0F84
:100350007B1F02C0769567959A95E2F76F3F71050E
:1003600019F010F08F5FE5CFF9016083DF91CF9135
:1003700008951092800084E080938100109285009F
:1003800010928400089580918400909185000895D2
:10039000AC0180918400909185009C01241B350B59
:1003A000283E3340B0F708952091840030918500B5
:1003B000820F931F0C94C801CF93DF931F92CDB788
:1003C000DEB79E012F5F3F4F45E06DE273E00E9474
:1003D000900191E0980F909300019981915097BD01
:1003E00018BC95B5977039F095B52091000127702C
:1003F000987F922B95BD298130E0E82FF0E0E35DF6
:10040000FC4FC901008002C0880F991F0A94E2F7CF
:100410000F90DF91CF91089585B3897F85BB85B516
:10042000909100019770887F892B85BD089585B5CF
:10043000887F85BD089585B382FB882780F908955C
:10044000009719F0019741F0089584B58F73629574
:10045000660F660F607C05C084B563706295607F2F
:100460008F7C682B64BD0895009741F0019759F483
:1004700084B58E7F84BD84B5826002C084B58C7FD4
:1004800084BD81E0089580E0089514BC15BC16BCBD
:1004900018BC84B58E7F84BD84B5826084BD81E044
:1004A00008959C01215031093093CD0081508093F3
:1004B000CC000895CF93DF93EC01888199810E944D
:1004C00051028A819BEF980F943008F088E098E100
:1004D0009093C9008550880F8093CA0081E0DF9116
:1004E000CF9108958091C800881F8827881F08959C
:1004F0008091C80085FB882780F908958091C80005
:1005000086FB882780F90895CF93C82F0E94780230
:100510008823E1F38091C80080648093C800C09371
:10052000CE00CF9108958091C80087FFFCCF8091C5
:10053000CE000895CF93DF93EC018991882319F0C1
:100540000E948402FACFDF91CF910895853098F40C
:10055000673088F421E030E001C0220F6A95EAF7A5
:10056000E82FF0E0EA5AFC4F922F90958081892382
:100570004111822B80830895853080F4673070F4B8
:1005800021E030E001C0220F6A95EAF7E82FF0E0A1
:10059000EA5AFC4F8081282381E009F480E0089525
:1005A00060915503E62FF0E0EA5AFC4F80810E94EB
:1005B0001E03809155038F5F853018F48093550397
:1005C0000895109255030895E6E5F3E01082118234
:1005D00012821382148208950E94FC020C94E40299
:1005E0009C01FC01FF2784A1832B84A395A1892F63
:1005F000832B85A381E00895CF93DF93CCE3D3E0F1
:10060000899199910E94F00283E0CA34D807C1F71A
:1006100083E090E40E94F00280E090E80E94F00203
:1006200083E090E10E94F00283E090E80E94F002F3
:1006300083E090E2DF91CF910C94F002E0915B03B4
:10064000F0E0EE0FFF1FEE5CFC4F20813181F901DD
:10065000FF2795A1932B95A3ECE3F3E097E020818E
:100660003181D901BB2795962C91959780FF03C0C6
:100670003095232301C0232B95962C93869591507A
:1006800032969111ECCFE62FF0E0EE0FFF1FEE5CFB
:10069000FC4F80819181FC01FF2785A190958923E2
:1006A00085A360935B0308956230710519F170F4BE
:1006B0006130710559F5FC01FF2724A1392F3095D0
:1006C000922F932394A385A183231DC063307105CA
:1006D00041F064307105D1F4FC01FF2784A1892B1E
:1006E0000FC0FC01FF2784A1892B84A385A19095CD
:1006F000892309C0FC01FF2784A1292F209582238B
:1007000084A385A1892B85A381E0089580E00895C5
:10071000E82FF0E0EE0FFF1FE45AFC4F80818823A2
:1007200021F0918181E0892702C080E090E0817012
:100730000895E82FF0E0EE0FFF1FE45AFC4F808190
:10074000811102C0818102C080E090E08170089533
:10075000E82FF0E0EE0FFF1FE45AFC4F8081089570
:10076000E82FF0E0EE0FFF1FE45AFC4F908181E08C
:10077000892708957F928F929F92AF92BF92CF92D6
:10078000DF92EF92FF920F931F93CF93DF93CCE50D
:10079000D3E05AE4C52E53E0D52E66E0762E88814C
:1007A0008983F601019111916F015801BB24F50174
:1007B00024A1E12EFF2485A190E08E219F2130E02D
:1007C0002E213F21232B31F0892B51F433E0832E4E
:1007D000912C0DC0892B41F488248394912C07C05F
:1007E00094E0892E912C03C082E0882E912C64E045
:1007F00070E0C8010E94540362E070E0C8010E94EA
:100800005403872D8A95F1F7F50183A190E0E82242
:10081000F92281E0EF2809F080E08883B401C80163
:100820000E9454032296F3E0C636DF0709F0B7CFE3
:10083000DF91CF911F910F91FF90EF90DF90CF90BC
:10084000BF90AF909F908F907F90089508950097EC
:1008500089F0FC012381621B67FD09C0062E000C94
:10086000770B248130E081E0621773070CF080E0A1
:100870008170089580E00895CF93DF93FC01892B68
:1008800079F18181481760F59281291748F59381A4
:10089000A62FA91BA7FD24C00A2E000CBB0BC481E8
:1008A000D0E0AC17BD07E4F4622F0E945007480F58
:1008B000858190E0BD010E9459070696242F269558
:1008C00026952695E80FF91FE20FF11D808190E033
:1008D000477002C0959587954A95E2F7817001C0EF
:1008E00080E0DF91CF910895CF93DF93EC010E94D8
:1008F000B9019E0140E050E062E17AE780E090E0DB
:100900000E947E073093690320936803DF91CF91A3
:10091000089580916603909167030E94C801209119
:100920006603309167038091680390916903820F99
:10093000931F90936703809366030895692F0C9427
:10094000BC0241E0611101C040E0692F0C94A60295
:100950000C94A1045F926F927F928F929F92AF92BC
:10096000BF92CF92DF92EF92FF920F931F93CF939C
:10097000DF93562E872E942E5C01E62EF72EC62F7F
:10098000660FDD0BC81BD10987FDD395072F770FA5
:10099000110B091B110997FD1395D7FF03C077248D
:1009A0007A9402C07724739417FF03C066246A9474
:1009B00002C066246394D7FF03C0D195C195D109C5
:1009C00017FF03C0119501951109C017D107A4F0B5
:1009D0006E01D594C794F92EA51411F1692D8A2DB5
:1009E0009F2D0E94A104C01AD10AD7FE03C0CC0ECD
:1009F000DD1EF60CA70CF0CF6801D594C794E82E45
:100A0000B81471F0692D8E2D9B2D0E94A104CC1A73
:100A1000DD0AD7FE03C0C00ED11EE70CB60CF0CF26
:100A2000692DC701DF91CF911F910F91FF90EF903A
:100A3000DF90CF90BF90AF909F908F907F906F90FE
:100A40005F900C94A104FF920F931F93CF93DF93B9
:100A5000D82FF92E162FC72F042F792F0E94AA0402
:100A6000402F6D2F7C2F8D2F9F2D0E94AA04402F89
:100A7000612F7C2F812F9F2D0E94AA04402F612F70
:100A80007C2F8D2F9C2F0E94AA04DF91CF911F9164
:100A90000F91FF9008950E94E402E1E0F1E0118AD5
:100AA00014860895DF92EF92FF920F931F93CF93D6
:100AB000DF93D82E7B01162F0F2D8091030190918B
:100AC0000401D0E0019799F50F2D0D1BE09109016C
:100AD000F0910A018181C0E0D817B8F48091090132
:100AE00090910A01FC012281C21768F42C2F4D2F2E
:100AF0006D2D0E943C04682F8E2D8C0F902F0E942C
:100B0000A104CF5FEBCFDF5FDFCFE0910901F09170
:100B10000A018281C81740F460E08E2D8C0F902F5F
:100B20000E94A104CF5FF1CF015030C0DF5F1E2DC6
:100B30001D0FE0910901F0910A018181C0E0D817F1
:100B4000A8F48091090190910A01FC012281C21749
:100B500068F72C2F4D2F6D2D0E943C04682F812F9C
:100B60009F2D9C0F0E94A104CF5FEBCFE091090164
:100B7000F0910A018281C81740F460E0812F9F2D17
:100B80009C0F0E94A104CF5FF1CF1F5F812F902F98
:100B9000DF91CF911F910F91FF90EF90DF9008951B
:100BA0000F931F93CF938C01C0E0F80181918F01C7
:100BB000882341F00E945205BC01CF5F853014F4B8
:100BC00077FFF3CF8C2FCF911F910F9108950F9343
:100BD0001F93CF93DF9310920D0140930E0110925B
:100BE00011010091090110910A010115110509F483
:100BF00049C09B01EC01F80181816091070170916E
:100C0000080190E00E945907BC0180910B0190916E
:100C10000C010E946A07CB016AE070E00E9459074C
:100C20009093100180930F013093060120930501EA
:100C300040E250E0BE0182E191E00E94BF07809156
:100C40000101909102010197E9F4FE010190002059
:100C5000E9F73197BF016C1B7D0BF80181818F5F34
:100C60000E945007815020910301309104012130EE
:100C7000310511F095E001C097E0981718F48EEF58
:100C800080931101DF91CF911F910F9108952091D1
:100C90000301309104012130310511F070E001C0F1
:100CA00076E04FEF60E00E94E705089590E09093B2
:100CB0000801809307010895909302018093010138
:100CC00008959093040180930301089590930A017D
:100CD00080930901089580916A0390916B030196B6
:100CE00090936B0380936A0320910F013091100160
:100CF0008217930708F469C010926B0310926A037D
:100D0000E0910D01F0E0EF5FFE4F818981110AC093
:100D100080910E01823008F458C0815080930E01FA
:100D200010920D0180910D0190E0FC01EF5FFE4FEC
:100D30002189222309F449C0409101015091020107
:100D4000209111014115510521F04130510599F0D3
:100D500024C0211122C060910501709106018E5EB0
:100D60009E4F0E94D00590E0019790910D01890F50
:100D700080930D0112C060910501709106014091B0
:100D80000301509104014130510511F4720F01C06B
:100D9000621B8E5E9E4F0E94D005809111018F5F75
:100DA00080931101082E000C990BE0910901F0913C
:100DB0000A01218130E0281739073CF41092110113
:100DC00080910D018F5F80930D010C94D002CF9321
:100DD000DF93C1E0D1E09B878A870E94EC0284E127
:100DE00090E09F838E83DF91CF910C944B050E94FE
:100DF000590084EF91E00E9474046AE070E084EF8F
:100E000091E00E9469000E94A0000E94F4000E94EC
:100E1000CC000E94C900C2E518EC00E0D0E00E94BE
:100E200089040E949E000E94EF000E9426018130EA
:100E300021F40E94C70001E0F2CF811104C00E949A
:100E4000C70000E0ECCF833011F5D1110DC08C2F1D
:100E50000E94CE00C82F0E94F100D82F0E94C70028
:100E6000D130D9F018EC0FC0D13069F40E94C50020
:100E70001F5F183C20F08C2F0E94A20010E08C2FE6
:100E80000E94AE00D82F8C2F0E947500C8CF8430EE
:100E900031F6802F0E948500C2CF0E94C500EBCFA3
:100EA000002480FD060E660F11F08695D1F7802D87
:100EB00008950024552704C0080E591F880F991F54
:100EC000009729F076956795B8F37105B9F7802DED
:100ED000952F0895AA1BBB1B51E107C0AA1FBB1F7A
:100EE000A617B70710F0A61BB70B881F991F5A95B6
:100EF000A9F780959095BC01CD010895052E97FB2B
:100F00001EF400940E94950757FD07D00E949D078C
:100F100007FC03D04EF40C949507509540953095FE
:100F200021953F4F4F4F5F4F089590958095709555
:100F300061957F4F8F4F9F4F0895A1E21A2EAA1BF4
:100F4000BB1BFD010DC0AA1FBB1FEE1FFF1FA21779
:100F5000B307E407F50720F0A21BB30BE40BF50B76
:100F6000661F771F881F991F1A9469F760957095FF
:100F7000809590959B01AC01BD01CF010895FB01C7
:100F8000DC014150504048F001900D920020C9F71B
:100F900001C01D9241505040E0F70895F894FFCFF2
:100FA000010000000000001400000000000000002C
:100FB0000000000000000000000000000000000031
:100FC0000000000000000000000000000000000021
:100FD0000000596F7520576F6E210000596F752002
:100FE0004C6F7374203A280000010507205F05004C
:100FF00000000000C6186380014A290000004A7DF5
:10100000F59502C417471F016322223206261551A7
:101010009305860800000088082108028220848841
:1010200000805457090080904F080000006088003D
:1010300000800F00000000008C0100222202002E20
:10104000E63AA303C4104288032E4244C4072E424A
:1010500007A30388A9F411023F8407A3032E861770
:10106000A3033F424408012E4617A3032E460FA3B5
:1010700003C018600C00C01860880088882008022F
:10108000007CF0010082208888002E424400012E5E
:10109000425BAB0344C51F63042FC617E3032E86D0
:1010A00010A2032FC618E3033F8417C2073F84171B
:1010B00042002E861EA30731C61F63048E1042888D
:1010C00003104218A3033195515204218410C20722
:1010D00071D71A630471D61C63042EC618A3032F9C
:1010E000C61742002EC65893052FC61763042E0656
:1010F00007A3039F1042080131C618A30331C61885
:10110000150131C65AAB02312AA26204312A4208C3
:10111000011F2222C207278410C20120088220005A
:101120000E218490034445000000000000C00782A7
:10113000200000000038E8A30721B419E30300B839
:1011400010A20310DA1CA30700B8F883034C8A230B
:101150008400C0C7E8A10321B419630404184288BD
:1011600003083084920121A4324A02861042880387
:1011700000AC5A630400B419630400B818A3030058
:10118000BCF8420000D8EC210400B419420000B8B9
:10119000E0E003421C21240300C418B30500C41876
:1011A000150100C45AAB02004445540400C4E8A130
:1011B00003007C44C40788104108028410420801DF
:1011C000821044880000888A0000D00008000306CE
:1011D000080A034000800310038003200040002021
:1011E00000100008000400020001038003400320F7
:0411F0000080031068
:00000001FF
