:100000000C943A000C9457000C9457000C94570031
:100010000C9457000C9457000C9457000C94570004
:100020000C9457000C9457000C9457000C945700F4
:100030000C9457000C9457000C9457000C945700E4
:100040000C9457000C9457000C9457000C945700D4
:100050000C9457000C9457000C9457000C945700C4
:100060000C9457000C9457000C9457000C945700B4
:100070000C94570011241FBECFEFD4E0DEBFCDBFDC
:1000800013E0A0E0B1E0E8ECFFE002C005900D92C3
:10009000A635B107D9F723E0A6E5B3E001C01D926C
:1000A000A137B207E1F70E9424070C94E2070C94F1
:1000B00000000F931F93CF93DF938C01EB01FC01A2
:1000C000808181110EC00E94080188810E940F0169
:1000D00088830E943201F8018083109201011092FE
:1000E0000001F80180818130F1F40E9406018091C5
:1000F00001018F5F80930101909100019F5F9093B8
:1001000000018A3028F01092010188810E94E300EA
:10011000809100018A3038F01092000188810E949D
:10012000EF00F80180838881DF91CF911F910F91BB
:100130000C94B600E1E6F0E080E880831082A89598
:1001400084B7877F84BFE0E6F0E0808188618083A8
:1001500010820895CF93C62F0E9414078BE491E07C
:100160000E9493068C2FCF910C948306CF93DF933C
:1001700000D0CDB7DEB789831A82CE0101960E94E6
:1001800074060F900F90DF91CF910895CF939091C7
:100190005603911112C0C82F81E090E00E94890699
:1001A00081E080935603CC2319F084E391E002C0F0
:1001B0008EE391E0CF910C947406CF9108950C9446
:1001C00098060C949001CF93C82F0E947801882341
:1001D00021F08C2FCF910C947E01CF910895CF9375
:1001E000C82F0E947401811102C081E00DC00E94DD
:1001F00076019EEA980F923010F08035B1F7682FA3
:100200008C2F0E943C0180E0CF910895429A08957E
:10021000429808953A9A429808950C945304CF93C3
:10022000C82F80E00E94B503882349F0C23521F031
:10023000C03521F0C2E503C0C0E501C0C3E582E0DE
:100240000E94B503882349F0C23521F0C03521F062
:10025000C0E503C0C3E501C0C2E58C2FCF9108956E
:100260000C94E70384E00C94B50310927003109291
:100270006E0310926F030895823581F4603531F476
:1002800080916E038F5F80936E030895633599F4B8
:10029000809170038F5F809370030895803529F4F7
:1002A0006235B1F3633539F4EBCF833521F4623530
:1002B00039F3603569F3089580916F03811110C09F
:1002C00090917003933020F081E080936F03089544
:1002D00090916E03933030F091E090936F03089506
:1002E00084E0089583E008950C949F020C94C0026A
:1002F0000C94A5020C94AB020C94B1020E94B102C2
:100300000E94AB028823E1F38CE291E00197F1F7C0
:100310000E949F0281110C94760108950C94C702EB
:10032000CF93DF9300D01F92CDB7DEB780912C031F
:1003300090912D03A0912E0389839A83AB83509AC9
:10034000589A0E9472028FE690E00E94090281E0B2
:1003500090E00E94610261E070E081E090E00E9424
:100360004D020E943902CE0101960E9487020F9031
:100370000F900F90DF91CF910895CF93DF93DC0121
:10038000FB0160E070E080E0C1E0D0E08417C9F0DC
:100390009191BE01092E02C0660F771F0A94E2F701
:1003A0006F5F7F4F769567956A0F7B1F02C07695CA
:1003B00067959A95E2F76F3F710519F010F08F5F1E
:1003C000E5CFF9016083DF91CF910895109280000D
:1003D00084E080938100109285001092840008953B
:1003E00080918400909185000895AC0180918400F3
:1003F000909185009C01241B350B283E3340B0F7BB
:1004000008952091840030918500820F931F0C94F1
:10041000F501CF93DF931F92CDB7DEB79E012F5F1B
:100420003F4F45E06FE273E00E94BD0191E0980FFD
:10043000909302019981915097BD18BC95B5977022
:1004400039F095B5209102012770987F922B95BDC8
:10045000298130E0E82FF0E0E15DFC4FC901008028
:1004600002C0880F991F0A94E2F70F90DF91CF9195
:10047000089585B3897F85BB85B5909102019770FA
:10048000887F892B85BD089585B5887F85BD0895B2
:1004900085B382FB882780F90895009719F00197AA
:1004A00041F0089584B58F736295660F660F607C86
:1004B00005C084B563706295607F8F7C682B64BDD6
:1004C0000895009741F0019759F484B58E7F84BD5B
:1004D00084B5826002C084B58C7F84BD81E00895BC
:1004E00080E0089514BC15BC16BC18BC84B58E7F82
:1004F00084BD84B5826084BD81E008959C01215053
:1005000031093093CD0081508093CC000895CF9372
:10051000DF93EC01888199810E947E028A819BEFA2
:10052000980F943008F088E098E19093C9008550C6
:10053000880F8093CA0081E0DF91CF910895809168
:10054000C800881F8827881F08958091C80085FBF0
:10055000882780F908958091C80086FB882780F954
:100560000895CF93C82F0E94A5028823E1F38091BC
:10057000C80080648093C800C093CE00CF910895D6
:100580008091C80087FFFCCF8091CE000895CF9363
:10059000DF93EC018991882319F00E94B102FACF10
:1005A000DF91CF910895853098F4673088F421E089
:1005B00030E001C0220F6A95EAF7E82FF0E0E85A30
:1005C000FC4F922F9095808189234111822B80834B
:1005D0000895853080F4673070F421E030E001C088
:1005E000220F6A95EAF7E82FF0E0E85AFC4F808185
:1005F000282381E009F480E0089560915703E62FF5
:10060000F0E0E85AFC4F80810E944B038091570331
:100610008F5F853018F48093570308951092570325
:100620000895E8E5F3E010821182128213821482A9
:1006300008950E9429030C9411039C01FC01FF27DB
:1006400084A1832B84A395A1892F832B85A381E08B
:100650000895CF93DF93CEE3D3E0899199910E94DF
:100660001D0383E0CC34D807C1F783E090E40E94F7
:100670001D0380E090E80E941D0383E090E10E944A
:100680001D0383E090E80E941D0383E090E2DF9168
:10069000CF910C941D03E0915D03F0E0EE0FFF1F7E
:1006A000EC5CFC4F20813181F901FF2795A1932B50
:1006B00095A3EEE3F3E097E020813181D901BB27D8
:1006C00095962C91959780FF03C03095232301C008
:1006D000232B95962C938695915032969111ECCFC1
:1006E000E62FF0E0EE0FFF1FEC5CFC4F8081918164
:1006F000FC01FF2785A19095892385A360935D0365
:1007000008956230710519F170F46130710559F581
:10071000FC01FF2724A1392F3095922F932394A316
:1007200085A183231DC06330710541F064307105DC
:10073000D1F4FC01FF2784A1892B0FC0FC01FF2706
:1007400084A1892B84A385A19095892309C0FC01EC
:10075000FF2784A1292F2095822384A385A1892B9B
:1007600085A381E0089580E00895E82FF0E0EE0F82
:10077000FF1FE25AFC4F8081882321F0918181E0A4
:10078000892702C080E090E081700895E82FF0E0B2
:10079000EE0FFF1FE25AFC4F8081811102C0818160
:1007A00002C080E090E081700895E82FF0E0EE0F45
:1007B000FF1FE25AFC4F80810895E82FF0E0EE0F12
:1007C000FF1FE25AFC4F908181E0892708957F92B4
:1007D0008F929F92AF92BF92CF92DF92EF92FF9251
:1007E0000F931F93CF93DF93CEE5D3E05CE4C52E48
:1007F00053E0D52E66E0762E88818983F60101913B
:1008000011916F015801BB24F50124A1E12EFF24B1
:1008100085A190E08E219F2130E02E213F21232BC6
:1008200031F0892B51F433E0832E912C0DC0892BAC
:1008300041F488248394912C07C094E0892E912C54
:1008400003C082E0882E912C64E070E0C8010E9411
:10085000810362E070E0C8010E948103872D8A95C0
:10086000F1F7F50183A190E0E822F92281E0EF2879
:1008700009F080E08883B401C8010E9481032296B8
:10088000F3E0C836DF0709F0B7CFDF91CF911F91B2
:100890000F91FF90EF90DF90CF90BF90AF909F901F
:1008A0008F907F9008950895009789F0FC0123812F
:1008B000621B67FD09C0062E000C770B248130E017
:1008C00081E0621773070CF080E08170089580E08A
:1008D0000895CF93DF93FC01892B79F1818148172B
:1008E00060F59281291748F59381A62FA91BA7FDD2
:1008F00024C00A2E000CBB0BC481D0E0AC17BD078E
:10090000E4F4622F0E946407480F858190E0BD01E6
:100910000E946D070696242F269526952695E80FAA
:10092000F91FE20FF11D808190E0477002C095959C
:1009300087954A95E2F7817001C080E0DF91CF9101
:100940000895CF93DF93EC010E94E6019E0140E001
:1009500050E062E17AE780E090E00E9492073093F5
:100960006B0320936A03DF91CF9108958091680310
:10097000909169030E94F501209168033091690309
:1009800080916A0390916B03820F931F9093690388
:10099000809368030895692F0C94E90241E0611186
:1009A00001C040E0692F0C94D3020C94CE045F92F6
:1009B0006F927F928F929F92AF92BF92CF92DF926F
:1009C000EF92FF920F931F93CF93DF93562E872EB4
:1009D000942E5C01E62EF72EC62F660FDD0BC81B8A
:1009E000D10987FDD395072F770F110B091B11092B
:1009F00097FD1395D7FF03C077247A9402C077241C
:100A0000739417FF03C066246A9402C0662463943B
:100A1000D7FF03C0D195C195D10917FF03C0119528
:100A200001951109C017D107A4F06E01D594C794A0
:100A3000F92EA51411F1692D8A2D9F2D0E94CE0447
:100A4000C01AD10AD7FE03C0CC0EDD1EF60CA70CCF
:100A5000F0CF6801D594C794E82EB81471F0692DD1
:100A60008E2D9B2D0E94CE04CC1ADD0AD7FE03C02A
:100A7000C00ED11EE70CB60CF0CF692DC701DF9177
:100A8000CF911F910F91FF90EF90DF90CF90BF908B
:100A9000AF909F908F907F906F905F900C94CE045A
:100AA000FF920F931F93CF93DF93D82FF92E162F1A
:100AB000C72F042F792F0E94D704402F6D2F7C2F32
:100AC0008D2F9F2D0E94D704402F612F7C2F812FC7
:100AD0009F2D0E94D704402F612F7C2F8D2F9C2F9C
:100AE0000E94D704DF91CF911F910F91FF9008953D
:100AF0000E941103E3E0F1E0118A14860895DF9269
:100B0000EF92FF920F931F93CF93DF93D82E7B0129
:100B1000162F0F2D8091050190910601D0E00197CD
:100B200099F50F2D0D1BE0910B01F0910C018181C6
:100B3000C0E0D817B8F480910B0190910C01FC0132
:100B40002281C21768F42C2F4D2F6D2D0E9469044D
:100B5000682F8E2D8C0F902F0E94CE04CF5FEBCF8D
:100B6000DF5FDFCFE0910B01F0910C018281C817AC
:100B700040F460E08E2D8C0F902F0E94CE04CF5F4A
:100B8000F1CF015030C0DF5F1E2D1D0FE0910B0132
:100B9000F0910C018181C0E0D817A8F480910B017D
:100BA00090910C01FC012281C21768F72C2F4D2F68
:100BB0006D2D0E946904682F812F9F2D9C0F0E942C
:100BC000CE04CF5FEBCFE0910B01F0910C0182815D
:100BD000C81740F460E0812F9F2D9C0F0E94CE0427
:100BE000CF5FF1CF1F5F812F902FDF91CF911F91AA
:100BF0000F91FF90EF90DF9008950F931F93CF9385
:100C00008C01C0E0F80181918F01882341F00E949E
:100C10007F05BC01CF5F853014F477FFF3CF8C2FB5
:100C2000CF911F910F9108950F931F93CF93DF934F
:100C300010920F01409310011092130100910B01CB
:100C400010910C010115110509F449C09B01EC013B
:100C5000F80181816091090170910A0190E00E9480
:100C60006D07BC0180910D0190910E010E947E07DD
:100C7000CB016AE070E00E946D07909312018093AF
:100C80001101309308012093070140E250E0BE01BA
:100C900084E191E00E94D3078091030190910401C7
:100CA0000197E9F4FE0101900020E9F73197BF01B7
:100CB0006C1B7D0BF80181818F5F0E94640781505E
:100CC00020910501309106012130310511F095E0A8
:100CD00001C097E0981718F48EEF80931301DF910D
:100CE000CF911F910F910895209105013091060138
:100CF0002130310511F070E001C076E04FEF60E087
:100D00000E941406089590E090930A0180930901CF
:100D10000895909304018093030108959093060130
:100D200080930501089590930C0180930B01089521
:100D300080916C0390916D03019690936D03809365
:100D40006C0320911101309112018217930708F46E
:100D500069C010926D0310926C03E0910F01F0E0F6
:100D6000ED5FFE4F818981110AC0809110018230B0
:100D700008F458C081508093100110920F018091A7
:100D80000F0190E0FC01ED5FFE4F2189222309F461
:100D900049C0409103015091040120911301411574
:100DA000510521F04130510599F024C0211122C094
:100DB00060910701709108018C5E9E4F0E94FD05B5
:100DC00090E0019790910F01890F80930F0112C05D
:100DD0006091070170910801409105015091060151
:100DE0004130510511F4720F01C0621B8C5E9E4FA1
:100DF0000E94FD05809113018F5F80931301082EDF
:100E0000000C990BE0910B01F0910C01218130E075
:100E1000281739073CF41092130180910F018F5F5E
:100E200080930F010C94FD02CF93DF93C3E0D1E0D8
:100E30009B878A870E94190384E190E09F838E83B9
:100E4000DF91CF910C947805CF93DF9300D0CDB78D
:100E5000DEB70E949A0084EF91E00E94A1046AE04C
:100E600070E084EF91E00E94AA000E94E1000E94DD
:100E700035010E940D010E940A011A8282E58983D0
:100E800010E00E94B6040E94DF000E9430010E9420
:100E90005C01813021F40E94080111E0F2CF811140
:100EA00003C00E940801ECCF833041F4BE016F5FA4
:100EB0007F4FCE0102960E945900E3CF843009F79C
:100EC000812F0E94C600DDCF002480FD060E660F34
:100ED00011F08695D1F7802D08950024552704C080
:100EE000080E591F880F991F009729F0769567956E
:100EF000B8F37105B9F7802D952F0895AA1BBB1B78
:100F000051E107C0AA1FBB1FA617B70710F0A61B09
:100F1000B70B881F991F5A95A9F780959095BC012A
:100F2000CD010895052E97FB1EF400940E94A90799
:100F300057FD07D00E94B10707FC03D04EF40C9474
:100F4000A90750954095309521953F4F4F4F5F4FE2
:100F5000089590958095709561957F4F8F4F9F4F25
:100F60000895A1E21A2EAA1BBB1BFD010DC0AA1FEA
:100F7000BB1FEE1FFF1FA217B307E407F50720F002
:100F8000A21BB30BE40BF50B661F771F881F991F7D
:100F90001A9469F760957095809590959B01AC01C6
:100FA000BD01CF010895FB01DC014150504048F0E4
:100FB00001900D920020C9F701C01D924150504090
:080FC000E0F70895F894FFCF5B
:100FC8000A0A0100000000000014000000000000F0
:100FD8000000000000000000000000000000000009
:100FE80000000000000000000000000000000000F9
:100FF80000000000596F7520576F6E210000596F6F
:1010080075204C6F7374203A280000010507205F93
:10101800050000000000C6186380014A290000008E
:101028004A7DF59502C417471F016322223206261E
:1010380015519305860800000088082108028220BF
:10104800848800805457090080904F080000006091
:10105800880000800F00000000008C01002222029E
:10106800002EE63AA303C4104288032E4244C40764
:101078002E4207A30388A9F411023F8407A3032E75
:101088008617A3033F424408012E4617A3032E46A2
:101098000FA303C018600C00C0186088008888205F
:1010A8000802007CF0010082208888002E4244005B
:1010B800012E425BAB0344C51F63042FC617E3032D
:1010C8002E8610A2032FC618E3033F8417C2073FDA
:1010D800841742002E861EA30731C61F63048E1094
:1010E800428803104218A3033195515204218410F9
:1010F800C20771D71A630471D61C63042EC618A3DD
:10110800032FC61742002EC65893052FC61763042F
:101118002E0607A3039F1042080131C618A3033106
:10112800C618150131C65AAB02312AA26204312A07
:101138004208011F2222C207278410C20120088208
:1011480020000E218490034445000000000000C0E8
:101158000782200000000038E8A30721B419E30340
:1011680000B810A20310DA1CA30700B8F883034CD8
:101178008A238400C0C7E8A10321B41963040418B2
:10118800428803083084920121A4324A0286104220
:10119800880300AC5A630400B419630400B818A3A8
:1011A8000300BCF8420000D8EC210400B419420046
:1011B80000B8E0E003421C21240300C418B3050072
:1011C800C418150100C45AAB02004445540400C4B5
:1011D800E8A103007C44C407881041080284104237
:1011E8000801821044880000888A0000D0000800A6
:1011F8000306080A03400080031003800320004010
:1012080000200010000800040002000103800340D1
:061218000320008003101A
:00000001FF
